{
  "_format": "hh-sol-artifact-1",
  "contractName": "TaskComrade",
  "sourceName": "contracts/TaskComrade.sol",
  "abi": [
    {
      "inputs": [
        {
          "internalType": "address",
          "name": "_owner",
          "type": "address"
        }
      ],
      "stateMutability": "payable",
      "type": "constructor"
    },
    {
      "anonymous": false,
      "inputs": [
        {
          "indexed": false,
          "internalType": "address",
          "name": "Tasker",
          "type": "address"
        }
      ],
      "name": "ProfileCreated",
      "type": "event"
    },
    {
      "anonymous": false,
      "inputs": [
        {
          "indexed": false,
          "internalType": "uint256",
          "name": "amount",
          "type": "uint256"
        },
        {
          "indexed": false,
          "internalType": "uint256",
          "name": "when",
          "type": "uint256"
        }
      ],
      "name": "Withdrawal",
      "type": "event"
    },
    {
      "inputs": [],
      "name": "register",
      "outputs": [
        {
          "internalType": "uint256",
          "name": "_registrationId",
          "type": "uint256"
        }
      ],
      "stateMutability": "payable",
      "type": "function"
    },
    {
      "inputs": [],
      "name": "registrationId",
      "outputs": [
        {
          "internalType": "uint256",
          "name": "",
          "type": "uint256"
        }
      ],
      "stateMutability": "view",
      "type": "function"
    },
    {
      "inputs": [
        {
          "internalType": "address",
          "name": "",
          "type": "address"
        }
      ],
      "name": "taskerRegistered",
      "outputs": [
        {
          "internalType": "bool",
          "name": "",
          "type": "bool"
        }
      ],
      "stateMutability": "view",
      "type": "function"
    },
    {
      "inputs": [],
      "name": "withdraw",
      "outputs": [],
      "stateMutability": "nonpayable",
      "type": "function"
    }
  ],
  "bytecode": "0x608060405260405161081c38038061081c833981810160405281019061002591906100ce565b806000806101000a81548173ffffffffffffffffffffffffffffffffffffffff021916908373ffffffffffffffffffffffffffffffffffffffff160217905550506100fb565b600080fd5b600073ffffffffffffffffffffffffffffffffffffffff82169050919050565b600061009b82610070565b9050919050565b6100ab81610090565b81146100b657600080fd5b50565b6000815190506100c8816100a2565b92915050565b6000602082840312156100e4576100e361006b565b5b60006100f2848285016100b9565b91505092915050565b6107128061010a6000396000f3fe60806040526004361061003f5760003560e01c80631a2cdf15146100445780631aa3a008146100815780633ccfd60b1461009f578063f0b0c411146100b6575b600080fd5b34801561005057600080fd5b5061006b60048036038101906100669190610425565b6100e1565b604051610078919061046d565b60405180910390f35b610089610101565b60405161009691906104a1565b60405180910390f35b3480156100ab57600080fd5b506100b461028c565b005b3480156100c257600080fd5b506100cb6103bc565b6040516100d891906104a1565b60405180910390f35b60026020528060005260406000206000915054906101000a900460ff1681565b6000655af3107a400034101561014c576040517f08c379a000000000000000000000000000000000000000000000000000000000815260040161014390610519565b60405180910390fd5b60001515600260003373ffffffffffffffffffffffffffffffffffffffff1673ffffffffffffffffffffffffffffffffffffffff16815260200190815260200160002060009054906101000a900460ff161515146101df576040517f08c379a00000000000000000000000000000000000000000000000000000000081526004016101d690610585565b60405180910390fd5b6001600260003373ffffffffffffffffffffffffffffffffffffffff1673ffffffffffffffffffffffffffffffffffffffff16815260200190815260200160002060006101000a81548160ff021916908315150217905550600160008154610246906105d4565b919050819055507ff10ec97e920cde75887622583772c637595a40b1f7777c18e51ea36cd127475c3360405161027c919061062c565b60405180910390a1600154905090565b60008054906101000a900473ffffffffffffffffffffffffffffffffffffffff1673ffffffffffffffffffffffffffffffffffffffff163373ffffffffffffffffffffffffffffffffffffffff161461031a576040517f08c379a000000000000000000000000000000000000000000000000000000000815260040161031190610693565b60405180910390fd5b7fbf2ed60bd5b5965d685680c01195c9514e4382e28e3a5a2d2d5244bf59411b93474260405161034b9291906106b3565b60405180910390a160008054906101000a900473ffffffffffffffffffffffffffffffffffffffff1673ffffffffffffffffffffffffffffffffffffffff166108fc479081150290604051600060405180830381858888f193505050501580156103b9573d6000803e3d6000fd5b50565b60015481565b600080fd5b600073ffffffffffffffffffffffffffffffffffffffff82169050919050565b60006103f2826103c7565b9050919050565b610402816103e7565b811461040d57600080fd5b50565b60008135905061041f816103f9565b92915050565b60006020828403121561043b5761043a6103c2565b5b600061044984828501610410565b91505092915050565b60008115159050919050565b61046781610452565b82525050565b6000602082019050610482600083018461045e565b92915050565b6000819050919050565b61049b81610488565b82525050565b60006020820190506104b66000830184610492565b92915050565b600082825260208201905092915050565b7f4e6f7420656e6f756768206d617469632073656e740000000000000000000000600082015250565b60006105036015836104bc565b915061050e826104cd565b602082019050919050565b60006020820190508181036000830152610532816104f6565b9050919050565b7f5461736b657220616c7265616479207265676973746572656400000000000000600082015250565b600061056f6019836104bc565b915061057a82610539565b602082019050919050565b6000602082019050818103600083015261059e81610562565b9050919050565b7f4e487b7100000000000000000000000000000000000000000000000000000000600052601160045260246000fd5b60006105df82610488565b91507fffffffffffffffffffffffffffffffffffffffffffffffffffffffffffffffff821415610612576106116105a5565b5b600182019050919050565b610626816103e7565b82525050565b6000602082019050610641600083018461061d565b92915050565b7f596f75206172656e277420746865206f776e6572000000000000000000000000600082015250565b600061067d6014836104bc565b915061068882610647565b602082019050919050565b600060208201905081810360008301526106ac81610670565b9050919050565b60006040820190506106c86000830185610492565b6106d56020830184610492565b939250505056fea2646970667358221220b2b7381a2339c776ed9013b3195bbd806fa4b349885d9832321cccb06a39598664736f6c63430008090033",
  "linkReferences": {},
  "deployedLinkReferences": {}
}